{
  "_format": "hh-sol-artifact-1",
  "contractName": "AutoArtist",
  "sourceName": "contracts/AutoArtist.sol",
  "abi": [
    {
      "inputs": [
        {
          "internalType": "uint256",
          "name": "_biddingDuration",
          "type": "uint256"
        }
      ],
      "stateMutability": "nonpayable",
      "type": "constructor"
    },
    {
      "anonymous": false,
      "inputs": [
        {
          "indexed": true,
          "internalType": "address",
          "name": "owner",
          "type": "address"
        },
        {
          "indexed": true,
          "internalType": "address",
          "name": "approved",
          "type": "address"
        },
        {
          "indexed": true,
          "internalType": "uint256",
          "name": "tokenId",
          "type": "uint256"
        }
      ],
      "name": "Approval",
      "type": "event"
    },
    {
      "anonymous": false,
      "inputs": [
        {
          "indexed": true,
          "internalType": "address",
          "name": "owner",
          "type": "address"
        },
        {
          "indexed": true,
          "internalType": "address",
          "name": "operator",
          "type": "address"
        },
        {
          "indexed": false,
          "internalType": "bool",
          "name": "approved",
          "type": "bool"
        }
      ],
      "name": "ApprovalForAll",
      "type": "event"
    },
    {
      "anonymous": false,
      "inputs": [
        {
          "indexed": true,
          "internalType": "uint256",
          "name": "tokenId",
          "type": "uint256"
        },
        {
          "indexed": false,
          "internalType": "address",
          "name": "winner",
          "type": "address"
        },
        {
          "indexed": false,
          "internalType": "uint256",
          "name": "amount",
          "type": "uint256"
        }
      ],
      "name": "AuctionEnded",
      "type": "event"
    },
    {
      "anonymous": false,
      "inputs": [
        {
          "indexed": true,
          "internalType": "uint256",
          "name": "tokenId",
          "type": "uint256"
        },
        {
          "indexed": false,
          "internalType": "address",
          "name": "bidder",
          "type": "address"
        },
        {
          "indexed": false,
          "internalType": "uint256",
          "name": "amount",
          "type": "uint256"
        }
      ],
      "name": "HighestBidIncreased",
      "type": "event"
    },
    {
      "anonymous": false,
      "inputs": [
        {
          "indexed": true,
          "internalType": "address",
          "name": "previousOwner",
          "type": "address"
        },
        {
          "indexed": true,
          "internalType": "address",
          "name": "newOwner",
          "type": "address"
        }
      ],
      "name": "OwnershipTransferred",
      "type": "event"
    },
    {
      "anonymous": false,
      "inputs": [
        {
          "indexed": true,
          "internalType": "address",
          "name": "from",
          "type": "address"
        },
        {
          "indexed": true,
          "internalType": "address",
          "name": "to",
          "type": "address"
        },
        {
          "indexed": true,
          "internalType": "uint256",
          "name": "tokenId",
          "type": "uint256"
        }
      ],
      "name": "Transfer",
      "type": "event"
    },
    {
      "inputs": [
        {
          "internalType": "address",
          "name": "to",
          "type": "address"
        },
        {
          "internalType": "uint256",
          "name": "tokenId",
          "type": "uint256"
        }
      ],
      "name": "approve",
      "outputs": [],
      "stateMutability": "nonpayable",
      "type": "function"
    },
    {
      "inputs": [
        {
          "internalType": "uint256",
          "name": "tokenId",
          "type": "uint256"
        }
      ],
      "name": "auctionEnd",
      "outputs": [],
      "stateMutability": "nonpayable",
      "type": "function"
    },
    {
      "inputs": [
        {
          "internalType": "uint256",
          "name": "",
          "type": "uint256"
        }
      ],
      "name": "auctionEndTimes",
      "outputs": [
        {
          "internalType": "uint256",
          "name": "",
          "type": "uint256"
        }
      ],
      "stateMutability": "view",
      "type": "function"
    },
    {
      "inputs": [
        {
          "internalType": "uint256",
          "name": "",
          "type": "uint256"
        }
      ],
      "name": "auctionFinalizations",
      "outputs": [
        {
          "internalType": "bool",
          "name": "",
          "type": "bool"
        }
      ],
      "stateMutability": "view",
      "type": "function"
    },
    {
      "inputs": [
        {
          "internalType": "address",
          "name": "owner",
          "type": "address"
        }
      ],
      "name": "balanceOf",
      "outputs": [
        {
          "internalType": "uint256",
          "name": "",
          "type": "uint256"
        }
      ],
      "stateMutability": "view",
      "type": "function"
    },
    {
      "inputs": [
        {
          "internalType": "uint256",
          "name": "tokenId",
          "type": "uint256"
        }
      ],
      "name": "bid",
      "outputs": [],
      "stateMutability": "payable",
      "type": "function"
    },
    {
      "inputs": [],
      "name": "biddingDuration",
      "outputs": [
        {
          "internalType": "uint256",
          "name": "",
          "type": "uint256"
        }
      ],
      "stateMutability": "view",
      "type": "function"
    },
    {
      "inputs": [
        {
          "internalType": "uint256",
          "name": "",
          "type": "uint256"
        }
      ],
      "name": "creators",
      "outputs": [
        {
          "internalType": "address payable",
          "name": "",
          "type": "address"
        }
      ],
      "stateMutability": "view",
      "type": "function"
    },
    {
      "inputs": [
        {
          "internalType": "uint256",
          "name": "tokenId",
          "type": "uint256"
        }
      ],
      "name": "getApproved",
      "outputs": [
        {
          "internalType": "address",
          "name": "",
          "type": "address"
        }
      ],
      "stateMutability": "view",
      "type": "function"
    },
    {
      "inputs": [],
      "name": "getCurrentTokenId",
      "outputs": [
        {
          "internalType": "uint256",
          "name": "",
          "type": "uint256"
        }
      ],
      "stateMutability": "view",
      "type": "function"
    },
    {
      "inputs": [],
      "name": "getNextTokenId",
      "outputs": [
        {
          "internalType": "uint256",
          "name": "",
          "type": "uint256"
        }
      ],
      "stateMutability": "view",
      "type": "function"
    },
    {
      "inputs": [
        {
          "internalType": "uint256",
          "name": "tokenId",
          "type": "uint256"
        }
      ],
      "name": "getTokenInfo",
      "outputs": [
        {
          "internalType": "address",
          "name": "",
          "type": "address"
        },
        {
          "internalType": "address",
          "name": "",
          "type": "address"
        },
        {
          "internalType": "uint256",
          "name": "",
          "type": "uint256"
        },
        {
          "internalType": "uint256",
          "name": "",
          "type": "uint256"
        },
        {
          "internalType": "bool",
          "name": "",
          "type": "bool"
        },
        {
          "internalType": "string",
          "name": "",
          "type": "string"
        }
      ],
      "stateMutability": "view",
      "type": "function"
    },
    {
      "inputs": [
        {
          "internalType": "uint256",
          "name": "",
          "type": "uint256"
        }
      ],
      "name": "highestBidders",
      "outputs": [
        {
          "internalType": "address",
          "name": "",
          "type": "address"
        }
      ],
      "stateMutability": "view",
      "type": "function"
    },
    {
      "inputs": [
        {
          "internalType": "uint256",
          "name": "",
          "type": "uint256"
        }
      ],
      "name": "highestBids",
      "outputs": [
        {
          "internalType": "uint256",
          "name": "",
          "type": "uint256"
        }
      ],
      "stateMutability": "view",
      "type": "function"
    },
    {
      "inputs": [
        {
          "internalType": "address",
          "name": "owner",
          "type": "address"
        },
        {
          "internalType": "address",
          "name": "operator",
          "type": "address"
        }
      ],
      "name": "isApprovedForAll",
      "outputs": [
        {
          "internalType": "bool",
          "name": "",
          "type": "bool"
        }
      ],
      "stateMutability": "view",
      "type": "function"
    },
    {
      "inputs": [
        {
          "internalType": "address payable",
          "name": "creator",
          "type": "address"
        },
        {
          "internalType": "string",
          "name": "tokenURI",
          "type": "string"
        },
        {
          "internalType": "string",
          "name": "prompt",
          "type": "string"
        }
      ],
      "name": "mint",
      "outputs": [
        {
          "internalType": "uint256",
          "name": "",
          "type": "uint256"
        }
      ],
      "stateMutability": "nonpayable",
      "type": "function"
    },
    {
      "inputs": [],
      "name": "name",
      "outputs": [
        {
          "internalType": "string",
          "name": "",
          "type": "string"
        }
      ],
      "stateMutability": "view",
      "type": "function"
    },
    {
      "inputs": [],
      "name": "owner",
      "outputs": [
        {
          "internalType": "address",
          "name": "",
          "type": "address"
        }
      ],
      "stateMutability": "view",
      "type": "function"
    },
    {
      "inputs": [
        {
          "internalType": "uint256",
          "name": "tokenId",
          "type": "uint256"
        }
      ],
      "name": "ownerOf",
      "outputs": [
        {
          "internalType": "address",
          "name": "",
          "type": "address"
        }
      ],
      "stateMutability": "view",
      "type": "function"
    },
    {
      "inputs": [
        {
          "internalType": "uint256",
          "name": "",
          "type": "uint256"
        }
      ],
      "name": "prompts",
      "outputs": [
        {
          "internalType": "string",
          "name": "",
          "type": "string"
        }
      ],
      "stateMutability": "view",
      "type": "function"
    },
    {
      "inputs": [],
      "name": "renounceOwnership",
      "outputs": [],
      "stateMutability": "nonpayable",
      "type": "function"
    },
    {
      "inputs": [
        {
          "internalType": "address",
          "name": "from",
          "type": "address"
        },
        {
          "internalType": "address",
          "name": "to",
          "type": "address"
        },
        {
          "internalType": "uint256",
          "name": "tokenId",
          "type": "uint256"
        }
      ],
      "name": "safeTransferFrom",
      "outputs": [],
      "stateMutability": "nonpayable",
      "type": "function"
    },
    {
      "inputs": [
        {
          "internalType": "address",
          "name": "from",
          "type": "address"
        },
        {
          "internalType": "address",
          "name": "to",
          "type": "address"
        },
        {
          "internalType": "uint256",
          "name": "tokenId",
          "type": "uint256"
        },
        {
          "internalType": "bytes",
          "name": "data",
          "type": "bytes"
        }
      ],
      "name": "safeTransferFrom",
      "outputs": [],
      "stateMutability": "nonpayable",
      "type": "function"
    },
    {
      "inputs": [
        {
          "internalType": "address",
          "name": "operator",
          "type": "address"
        },
        {
          "internalType": "bool",
          "name": "approved",
          "type": "bool"
        }
      ],
      "name": "setApprovalForAll",
      "outputs": [],
      "stateMutability": "nonpayable",
      "type": "function"
    },
    {
      "inputs": [
        {
          "internalType": "bytes4",
          "name": "interfaceId",
          "type": "bytes4"
        }
      ],
      "name": "supportsInterface",
      "outputs": [
        {
          "internalType": "bool",
          "name": "",
          "type": "bool"
        }
      ],
      "stateMutability": "view",
      "type": "function"
    },
    {
      "inputs": [],
      "name": "symbol",
      "outputs": [
        {
          "internalType": "string",
          "name": "",
          "type": "string"
        }
      ],
      "stateMutability": "view",
      "type": "function"
    },
    {
      "inputs": [
        {
          "internalType": "uint256",
          "name": "tokenId",
          "type": "uint256"
        }
      ],
      "name": "tokenURI",
      "outputs": [
        {
          "internalType": "string",
          "name": "",
          "type": "string"
        }
      ],
      "stateMutability": "view",
      "type": "function"
    },
    {
      "inputs": [
        {
          "internalType": "address",
          "name": "from",
          "type": "address"
        },
        {
          "internalType": "address",
          "name": "to",
          "type": "address"
        },
        {
          "internalType": "uint256",
          "name": "tokenId",
          "type": "uint256"
        }
      ],
      "name": "transferFrom",
      "outputs": [],
      "stateMutability": "nonpayable",
      "type": "function"
    },
    {
      "inputs": [
        {
          "internalType": "address",
          "name": "newOwner",
          "type": "address"
        }
      ],
      "name": "transferOwnership",
      "outputs": [],
      "stateMutability": "nonpayable",
      "type": "function"
    },
    {
      "inputs": [],
      "name": "withdraw",
      "outputs": [
        {
          "internalType": "bool",
          "name": "",
          "type": "bool"
        }
      ],
      "stateMutability": "nonpayable",
      "type": "function"
    }
  ],
  "bytecode": "0x60806040523480156200001157600080fd5b5060405162004170380380620041708339818101604052810190620000379190620002c3565b6040518060400160405280600a81526020017f4175746f417274697374000000000000000000000000000000000000000000008152506040518060400160405280600281526020017f41410000000000000000000000000000000000000000000000000000000000008152508160009080519060200190620000bb929190620001d3565b508060019080519060200190620000d4929190620001d3565b505050620000f7620000eb6200010560201b60201c565b6200010d60201b60201c565b80601081905550506200035a565b600033905090565b6000600760009054906101000a900473ffffffffffffffffffffffffffffffffffffffff16905081600760006101000a81548173ffffffffffffffffffffffffffffffffffffffff021916908373ffffffffffffffffffffffffffffffffffffffff1602179055508173ffffffffffffffffffffffffffffffffffffffff168173ffffffffffffffffffffffffffffffffffffffff167f8be0079c531659141344cd1fd0a4f28419497f9722a3daafe3b4186f6b6457e060405160405180910390a35050565b828054620001e19062000324565b90600052602060002090601f01602090048101928262000205576000855562000251565b82601f106200022057805160ff191683800117855562000251565b8280016001018555821562000251579182015b828111156200025057825182559160200191906001019062000233565b5b50905062000260919062000264565b5090565b5b808211156200027f57600081600090555060010162000265565b5090565b600080fd5b6000819050919050565b6200029d8162000288565b8114620002a957600080fd5b50565b600081519050620002bd8162000292565b92915050565b600060208284031215620002dc57620002db62000283565b5b6000620002ec84828501620002ac565b91505092915050565b7f4e487b7100000000000000000000000000000000000000000000000000000000600052602260045260246000fd5b600060028204905060018216806200033d57607f821691505b60208210811415620003545762000353620002f5565b5b50919050565b613e06806200036a6000396000f3fe6080604052600436106101cd5760003560e01c80638c7a63ae116100f7578063c0ee86a711610095578063cd53d08e11610064578063cd53d08e146106cc578063d4cf9af714610709578063e985e9c514610746578063f2fde38b14610783576101cd565b8063c0ee86a7146105fc578063c87b56dd14610639578063c8e7b31d14610676578063caa0f92a146106a1576101cd565b806399071190116100d15780639907119014610530578063a22cb4651461056d578063ae86355414610596578063b88d4fde146105d3576101cd565b80638c7a63ae146104985780638da5cb5b146104da57806395d89b4114610505576101cd565b80633ccfd60b1161016f5780636352211e1161013e5780636352211e146103ca57806370a0823114610407578063715018a61461044457806377484aae1461045b576101cd565b80633ccfd60b1461032f57806342842e0e1461035a578063454a2ab314610383578063561892361461039f576101cd565b8063095ea7b3116101ab578063095ea7b314610277578063111cb258146102a057806323b872dd146102dd57806332246e9f14610306576101cd565b806301ffc9a7146101d257806306fdde031461020f578063081812fc1461023a575b600080fd5b3480156101de57600080fd5b506101f960048036038101906101f49190612902565b6107ac565b604051610206919061294a565b60405180910390f35b34801561021b57600080fd5b5061022461088e565b60405161023191906129fe565b60405180910390f35b34801561024657600080fd5b50610261600480360381019061025c9190612a56565b610920565b60405161026e9190612ac4565b60405180910390f35b34801561028357600080fd5b5061029e60048036038101906102999190612b0b565b610966565b005b3480156102ac57600080fd5b506102c760048036038101906102c29190612a56565b610a7e565b6040516102d49190612b5a565b60405180910390f35b3480156102e957600080fd5b5061030460048036038101906102ff9190612b75565b610a96565b005b34801561031257600080fd5b5061032d60048036038101906103289190612a56565b610af6565b005b34801561033b57600080fd5b50610344610d77565b604051610351919061294a565b60405180910390f35b34801561036657600080fd5b50610381600480360381019061037c9190612b75565b610e9b565b005b61039d60048036038101906103989190612a56565b610ebb565b005b3480156103ab57600080fd5b506103b46110eb565b6040516103c19190612b5a565b60405180910390f35b3480156103d657600080fd5b506103f160048036038101906103ec9190612a56565b6110fc565b6040516103fe9190612ac4565b60405180910390f35b34801561041357600080fd5b5061042e60048036038101906104299190612bc8565b6111ae565b60405161043b9190612b5a565b60405180910390f35b34801561045057600080fd5b50610459611266565b005b34801561046757600080fd5b50610482600480360381019061047d9190612a56565b61127a565b60405161048f9190612ac4565b60405180910390f35b3480156104a457600080fd5b506104bf60048036038101906104ba9190612a56565b6112ad565b6040516104d196959493929190612bf5565b60405180910390f35b3480156104e657600080fd5b506104ef611485565b6040516104fc9190612ac4565b60405180910390f35b34801561051157600080fd5b5061051a6114af565b60405161052791906129fe565b60405180910390f35b34801561053c57600080fd5b5061055760048036038101906105529190612dd0565b611541565b6040516105649190612b5a565b60405180910390f35b34801561057957600080fd5b50610594600480360381019061058f9190612e87565b611621565b005b3480156105a257600080fd5b506105bd60048036038101906105b89190612a56565b611637565b6040516105ca919061294a565b60405180910390f35b3480156105df57600080fd5b506105fa60048036038101906105f59190612f68565b611657565b005b34801561060857600080fd5b50610623600480360381019061061e9190612a56565b6116b9565b6040516106309190612b5a565b60405180910390f35b34801561064557600080fd5b50610660600480360381019061065b9190612a56565b6116d1565b60405161066d91906129fe565b60405180910390f35b34801561068257600080fd5b5061068b6117e4565b6040516106989190612b5a565b60405180910390f35b3480156106ad57600080fd5b506106b66117ea565b6040516106c39190612b5a565b60405180910390f35b3480156106d857600080fd5b506106f360048036038101906106ee9190612a56565b611807565b6040516107009190612ffa565b60405180910390f35b34801561071557600080fd5b50610730600480360381019061072b9190612a56565b61183a565b60405161073d91906129fe565b60405180910390f35b34801561075257600080fd5b5061076d60048036038101906107689190613015565b6118da565b60405161077a919061294a565b60405180910390f35b34801561078f57600080fd5b506107aa60048036038101906107a59190612bc8565b61196e565b005b60007f80ac58cd000000000000000000000000000000000000000000000000000000007bffffffffffffffffffffffffffffffffffffffffffffffffffffffff1916827bffffffffffffffffffffffffffffffffffffffffffffffffffffffff1916148061087757507f5b5e139f000000000000000000000000000000000000000000000000000000007bffffffffffffffffffffffffffffffffffffffffffffffffffffffff1916827bffffffffffffffffffffffffffffffffffffffffffffffffffffffff1916145b806108875750610886826119f2565b5b9050919050565b60606000805461089d90613084565b80601f01602080910402602001604051908101604052809291908181526020018280546108c990613084565b80156109165780601f106108eb57610100808354040283529160200191610916565b820191906000526020600020905b8154815290600101906020018083116108f957829003601f168201915b5050505050905090565b600061092b82611a5c565b6004600083815260200190815260200160002060009054906101000a900473ffffffffffffffffffffffffffffffffffffffff169050919050565b6000610971826110fc565b90508073ffffffffffffffffffffffffffffffffffffffff168373ffffffffffffffffffffffffffffffffffffffff1614156109e2576040517f08c379a00000000000000000000000000000000000000000000000000000000081526004016109d990613128565b60405180910390fd5b8073ffffffffffffffffffffffffffffffffffffffff16610a01611aa7565b73ffffffffffffffffffffffffffffffffffffffff161480610a305750610a2f81610a2a611aa7565b6118da565b5b610a6f576040517f08c379a0000000000000000000000000000000000000000000000000000000008152600401610a66906131ba565b60405180910390fd5b610a798383611aaf565b505050565b600b6020528060005260406000206000915090505481565b610aa7610aa1611aa7565b82611b68565b610ae6576040517f08c379a0000000000000000000000000000000000000000000000000000000008152600401610add9061324c565b60405180910390fd5b610af1838383611bfd565b505050565b60006009600083815260200190815260200160002060009054906101000a900473ffffffffffffffffffffffffffffffffffffffff1690506000600d60008481526020019081526020016000205490506000600b60008581526020019081526020016000205490506000600c600086815260200190815260200160002060009054906101000a900473ffffffffffffffffffffffffffffffffffffffff1690506000600e600087815260200190815260200160002060009054906101000a900460ff16905083421015610bfe576040517f08c379a0000000000000000000000000000000000000000000000000000000008152600401610bf5906132b8565b60405180910390fd5b8015610c3f576040517f08c379a0000000000000000000000000000000000000000000000000000000008152600401610c369061334a565b60405180910390fd5b6000606484610c4e91906133c8565b905060008185610c5e91906133f9565b905080600f60008973ffffffffffffffffffffffffffffffffffffffff1673ffffffffffffffffffffffffffffffffffffffff1681526020019081526020016000206000828254610caf919061342d565b925050819055506001600e60008a815260200190815260200160002060006101000a81548160ff021916908315150217905550877fd2aa34a4fdbbc6dff6a3e56f46e0f3ae2a31d7785ff3487aa5c95c642acea5018587604051610d14929190613483565b60405180910390a2600073ffffffffffffffffffffffffffffffffffffffff168473ffffffffffffffffffffffffffffffffffffffff161415610d6157610d5c30888a611bfd565b610d6d565b610d6c30858a611bfd565b5b5050505050505050565b600080600f60003373ffffffffffffffffffffffffffffffffffffffff1673ffffffffffffffffffffffffffffffffffffffff1681526020019081526020016000205490506000811115610e92576000600f60003373ffffffffffffffffffffffffffffffffffffffff1673ffffffffffffffffffffffffffffffffffffffff168152602001908152602001600020819055503373ffffffffffffffffffffffffffffffffffffffff166108fc829081150290604051600060405180830381858888f19350505050610e915780600f60003373ffffffffffffffffffffffffffffffffffffffff1673ffffffffffffffffffffffffffffffffffffffff168152602001908152602001600020819055506000915050610e98565b5b60019150505b90565b610eb683838360405180602001604052806000815250611657565b505050565b6000610ec6826110fc565b90506000600d60008481526020019081526020016000205490506000600b60008581526020019081526020016000205490503073ffffffffffffffffffffffffffffffffffffffff168373ffffffffffffffffffffffffffffffffffffffff1614610f66576040517f08c379a0000000000000000000000000000000000000000000000000000000008152600401610f5d906134f8565b60405180910390fd5b81421115610fa9576040517f08c379a0000000000000000000000000000000000000000000000000000000008152600401610fa090613564565b60405180910390fd5b803411610feb576040517f08c379a0000000000000000000000000000000000000000000000000000000008152600401610fe2906135d0565b60405180910390fd5b34600b60008681526020019081526020016000208190555033600c600086815260200190815260200160002060006101000a81548173ffffffffffffffffffffffffffffffffffffffff021916908373ffffffffffffffffffffffffffffffffffffffff16021790555080600f60003373ffffffffffffffffffffffffffffffffffffffff1673ffffffffffffffffffffffffffffffffffffffff16815260200190815260200160002060008282546110a4919061342d565b92505081905550837fda0a18da71d8ebd145966339a728fc0d8ccc07c22870d561890d823c515dda6b33346040516110dd929190613483565b60405180910390a250505050565b60006110f76008611e64565b905090565b6000806002600084815260200190815260200160002060009054906101000a900473ffffffffffffffffffffffffffffffffffffffff169050600073ffffffffffffffffffffffffffffffffffffffff168173ffffffffffffffffffffffffffffffffffffffff1614156111a5576040517f08c379a000000000000000000000000000000000000000000000000000000000815260040161119c9061363c565b60405180910390fd5b80915050919050565b60008073ffffffffffffffffffffffffffffffffffffffff168273ffffffffffffffffffffffffffffffffffffffff16141561121f576040517f08c379a0000000000000000000000000000000000000000000000000000000008152600401611216906136ce565b60405180910390fd5b600360008373ffffffffffffffffffffffffffffffffffffffff1673ffffffffffffffffffffffffffffffffffffffff168152602001908152602001600020549050919050565b61126e611e72565b6112786000611ef0565b565b600c6020528060005260406000206000915054906101000a900473ffffffffffffffffffffffffffffffffffffffff1681565b600080600080600060606112c087611fb6565b6112ff576040517f08c379a00000000000000000000000000000000000000000000000000000000081526004016112f69061373a565b60405180910390fd5b60006009600089815260200190815260200160002060009054906101000a900473ffffffffffffffffffffffffffffffffffffffff1690506000600c60008a815260200190815260200160002060009054906101000a900473ffffffffffffffffffffffffffffffffffffffff1690506000600b60008b81526020019081526020016000205490506000600d60008c81526020019081526020016000205490506000600e60008d815260200190815260200160002060009054906101000a900460ff1690506000600a60008e815260200190815260200160002080546113e490613084565b80601f016020809104026020016040519081016040528092919081815260200182805461141090613084565b801561145d5780601f106114325761010080835404028352916020019161145d565b820191906000526020600020905b81548152906001019060200180831161144057829003601f168201915b505050505090508585858585859b509b509b509b509b509b5050505050505091939550919395565b6000600760009054906101000a900473ffffffffffffffffffffffffffffffffffffffff16905090565b6060600180546114be90613084565b80601f01602080910402602001604051908101604052809291908181526020018280546114ea90613084565b80156115375780601f1061150c57610100808354040283529160200191611537565b820191906000526020600020905b81548152906001019060200180831161151a57829003601f168201915b5050505050905090565b600061154b611e72565b6115556008612022565b60006115616008611e64565b905061156d3082612038565b6115778185612212565b846009600083815260200190815260200160002060006101000a81548173ffffffffffffffffffffffffffffffffffffffff021916908373ffffffffffffffffffffffffffffffffffffffff160217905550601054426115d7919061342d565b600d60008381526020019081526020016000208190555082600a600083815260200190815260200160002090805190602001906116159291906127f3565b50809150509392505050565b61163361162c611aa7565b8383612286565b5050565b600e6020528060005260406000206000915054906101000a900460ff1681565b611668611662611aa7565b83611b68565b6116a7576040517f08c379a000000000000000000000000000000000000000000000000000000000815260040161169e9061324c565b60405180910390fd5b6116b3848484846123f3565b50505050565b600d6020528060005260406000206000915090505481565b60606116dc82611a5c565b60006006600084815260200190815260200160002080546116fc90613084565b80601f016020809104026020016040519081016040528092919081815260200182805461172890613084565b80156117755780601f1061174a57610100808354040283529160200191611775565b820191906000526020600020905b81548152906001019060200180831161175857829003601f168201915b50505050509050600061178661244f565b905060008151141561179c5781925050506117df565b6000825111156117d15780826040516020016117b9929190613796565b604051602081830303815290604052925050506117df565b6117da84612466565b925050505b919050565b60105481565b600060016117f86008611e64565b611802919061342d565b905090565b60096020528060005260406000206000915054906101000a900473ffffffffffffffffffffffffffffffffffffffff1681565b600a602052806000526040600020600091509050805461185990613084565b80601f016020809104026020016040519081016040528092919081815260200182805461188590613084565b80156118d25780601f106118a7576101008083540402835291602001916118d2565b820191906000526020600020905b8154815290600101906020018083116118b557829003601f168201915b505050505081565b6000600560008473ffffffffffffffffffffffffffffffffffffffff1673ffffffffffffffffffffffffffffffffffffffff16815260200190815260200160002060008373ffffffffffffffffffffffffffffffffffffffff1673ffffffffffffffffffffffffffffffffffffffff16815260200190815260200160002060009054906101000a900460ff16905092915050565b611976611e72565b600073ffffffffffffffffffffffffffffffffffffffff168173ffffffffffffffffffffffffffffffffffffffff1614156119e6576040517f08c379a00000000000000000000000000000000000000000000000000000000081526004016119dd9061382c565b60405180910390fd5b6119ef81611ef0565b50565b60007f01ffc9a7000000000000000000000000000000000000000000000000000000007bffffffffffffffffffffffffffffffffffffffffffffffffffffffff1916827bffffffffffffffffffffffffffffffffffffffffffffffffffffffff1916149050919050565b611a6581611fb6565b611aa4576040517f08c379a0000000000000000000000000000000000000000000000000000000008152600401611a9b9061363c565b60405180910390fd5b50565b600033905090565b816004600083815260200190815260200160002060006101000a81548173ffffffffffffffffffffffffffffffffffffffff021916908373ffffffffffffffffffffffffffffffffffffffff160217905550808273ffffffffffffffffffffffffffffffffffffffff16611b22836110fc565b73ffffffffffffffffffffffffffffffffffffffff167f8c5be1e5ebec7d5bd14f71427d1e84f3dd0314c0f7b2291e5b200ac8c7c3b92560405160405180910390a45050565b600080611b74836110fc565b90508073ffffffffffffffffffffffffffffffffffffffff168473ffffffffffffffffffffffffffffffffffffffff161480611bb65750611bb581856118da565b5b80611bf457508373ffffffffffffffffffffffffffffffffffffffff16611bdc84610920565b73ffffffffffffffffffffffffffffffffffffffff16145b91505092915050565b8273ffffffffffffffffffffffffffffffffffffffff16611c1d826110fc565b73ffffffffffffffffffffffffffffffffffffffff1614611c73576040517f08c379a0000000000000000000000000000000000000000000000000000000008152600401611c6a906138be565b60405180910390fd5b600073ffffffffffffffffffffffffffffffffffffffff168273ffffffffffffffffffffffffffffffffffffffff161415611ce3576040517f08c379a0000000000000000000000000000000000000000000000000000000008152600401611cda90613950565b60405180910390fd5b611cee8383836124ce565b611cf9600082611aaf565b6001600360008573ffffffffffffffffffffffffffffffffffffffff1673ffffffffffffffffffffffffffffffffffffffff1681526020019081526020016000206000828254611d4991906133f9565b925050819055506001600360008473ffffffffffffffffffffffffffffffffffffffff1673ffffffffffffffffffffffffffffffffffffffff1681526020019081526020016000206000828254611da0919061342d565b92505081905550816002600083815260200190815260200160002060006101000a81548173ffffffffffffffffffffffffffffffffffffffff021916908373ffffffffffffffffffffffffffffffffffffffff160217905550808273ffffffffffffffffffffffffffffffffffffffff168473ffffffffffffffffffffffffffffffffffffffff167fddf252ad1be2c89b69c2b068fc378daa952ba7f163c4a11628f55a4df523b3ef60405160405180910390a4611e5f8383836124d3565b505050565b600081600001549050919050565b611e7a611aa7565b73ffffffffffffffffffffffffffffffffffffffff16611e98611485565b73ffffffffffffffffffffffffffffffffffffffff1614611eee576040517f08c379a0000000000000000000000000000000000000000000000000000000008152600401611ee5906139bc565b60405180910390fd5b565b6000600760009054906101000a900473ffffffffffffffffffffffffffffffffffffffff16905081600760006101000a81548173ffffffffffffffffffffffffffffffffffffffff021916908373ffffffffffffffffffffffffffffffffffffffff1602179055508173ffffffffffffffffffffffffffffffffffffffff168173ffffffffffffffffffffffffffffffffffffffff167f8be0079c531659141344cd1fd0a4f28419497f9722a3daafe3b4186f6b6457e060405160405180910390a35050565b60008073ffffffffffffffffffffffffffffffffffffffff166002600084815260200190815260200160002060009054906101000a900473ffffffffffffffffffffffffffffffffffffffff1673ffffffffffffffffffffffffffffffffffffffff1614159050919050565b6001816000016000828254019250508190555050565b600073ffffffffffffffffffffffffffffffffffffffff168273ffffffffffffffffffffffffffffffffffffffff1614156120a8576040517f08c379a000000000000000000000000000000000000000000000000000000000815260040161209f90613a28565b60405180910390fd5b6120b181611fb6565b156120f1576040517f08c379a00000000000000000000000000000000000000000000000000000000081526004016120e890613a94565b60405180910390fd5b6120fd600083836124ce565b6001600360008473ffffffffffffffffffffffffffffffffffffffff1673ffffffffffffffffffffffffffffffffffffffff168152602001908152602001600020600082825461214d919061342d565b92505081905550816002600083815260200190815260200160002060006101000a81548173ffffffffffffffffffffffffffffffffffffffff021916908373ffffffffffffffffffffffffffffffffffffffff160217905550808273ffffffffffffffffffffffffffffffffffffffff16600073ffffffffffffffffffffffffffffffffffffffff167fddf252ad1be2c89b69c2b068fc378daa952ba7f163c4a11628f55a4df523b3ef60405160405180910390a461220e600083836124d3565b5050565b61221b82611fb6565b61225a576040517f08c379a000000000000000000000000000000000000000000000000000000000815260040161225190613b26565b60405180910390fd5b806006600084815260200190815260200160002090805190602001906122819291906127f3565b505050565b8173ffffffffffffffffffffffffffffffffffffffff168373ffffffffffffffffffffffffffffffffffffffff1614156122f5576040517f08c379a00000000000000000000000000000000000000000000000000000000081526004016122ec90613b92565b60405180910390fd5b80600560008573ffffffffffffffffffffffffffffffffffffffff1673ffffffffffffffffffffffffffffffffffffffff16815260200190815260200160002060008473ffffffffffffffffffffffffffffffffffffffff1673ffffffffffffffffffffffffffffffffffffffff16815260200190815260200160002060006101000a81548160ff0219169083151502179055508173ffffffffffffffffffffffffffffffffffffffff168373ffffffffffffffffffffffffffffffffffffffff167f17307eab39ab6107e8899845ad3d59bd9653f200f220920489ca2b5937696c31836040516123e6919061294a565b60405180910390a3505050565b6123fe848484611bfd565b61240a848484846124d8565b612449576040517f08c379a000000000000000000000000000000000000000000000000000000000815260040161244090613c24565b60405180910390fd5b50505050565b606060405180602001604052806000815250905090565b606061247182611a5c565b600061247b61244f565b9050600081511161249b57604051806020016040528060008152506124c6565b806124a58461266f565b6040516020016124b6929190613796565b6040516020818303038152906040525b915050919050565b505050565b505050565b60006124f98473ffffffffffffffffffffffffffffffffffffffff166127d0565b15612662578373ffffffffffffffffffffffffffffffffffffffff1663150b7a02612522611aa7565b8786866040518563ffffffff1660e01b81526004016125449493929190613c99565b602060405180830381600087803b15801561255e57600080fd5b505af192505050801561258f57506040513d601f19601f8201168201806040525081019061258c9190613cfa565b60015b612612573d80600081146125bf576040519150601f19603f3d011682016040523d82523d6000602084013e6125c4565b606091505b5060008151141561260a576040517f08c379a000000000000000000000000000000000000000000000000000000000815260040161260190613c24565b60405180910390fd5b805181602001fd5b63150b7a0260e01b7bffffffffffffffffffffffffffffffffffffffffffffffffffffffff1916817bffffffffffffffffffffffffffffffffffffffffffffffffffffffff191614915050612667565b600190505b949350505050565b606060008214156126b7576040518060400160405280600181526020017f300000000000000000000000000000000000000000000000000000000000000081525090506127cb565b600082905060005b600082146126e95780806126d290613d27565b915050600a826126e291906133c8565b91506126bf565b60008167ffffffffffffffff81111561270557612704612ca5565b5b6040519080825280601f01601f1916602001820160405280156127375781602001600182028036833780820191505090505b5090505b600085146127c45760018261275091906133f9565b9150600a8561275f9190613d70565b603061276b919061342d565b60f81b81838151811061278157612780613da1565b5b60200101907effffffffffffffffffffffffffffffffffffffffffffffffffffffffffffff1916908160001a905350600a856127bd91906133c8565b945061273b565b8093505050505b919050565b6000808273ffffffffffffffffffffffffffffffffffffffff163b119050919050565b8280546127ff90613084565b90600052602060002090601f0160209004810192826128215760008555612868565b82601f1061283a57805160ff1916838001178555612868565b82800160010185558215612868579182015b8281111561286757825182559160200191906001019061284c565b5b5090506128759190612879565b5090565b5b8082111561289257600081600090555060010161287a565b5090565b6000604051905090565b600080fd5b600080fd5b60007fffffffff0000000000000000000000000000000000000000000000000000000082169050919050565b6128df816128aa565b81146128ea57600080fd5b50565b6000813590506128fc816128d6565b92915050565b600060208284031215612918576129176128a0565b5b6000612926848285016128ed565b91505092915050565b60008115159050919050565b6129448161292f565b82525050565b600060208201905061295f600083018461293b565b92915050565b600081519050919050565b600082825260208201905092915050565b60005b8381101561299f578082015181840152602081019050612984565b838111156129ae576000848401525b50505050565b6000601f19601f8301169050919050565b60006129d082612965565b6129da8185612970565b93506129ea818560208601612981565b6129f3816129b4565b840191505092915050565b60006020820190508181036000830152612a1881846129c5565b905092915050565b6000819050919050565b612a3381612a20565b8114612a3e57600080fd5b50565b600081359050612a5081612a2a565b92915050565b600060208284031215612a6c57612a6b6128a0565b5b6000612a7a84828501612a41565b91505092915050565b600073ffffffffffffffffffffffffffffffffffffffff82169050919050565b6000612aae82612a83565b9050919050565b612abe81612aa3565b82525050565b6000602082019050612ad96000830184612ab5565b92915050565b612ae881612aa3565b8114612af357600080fd5b50565b600081359050612b0581612adf565b92915050565b60008060408385031215612b2257612b216128a0565b5b6000612b3085828601612af6565b9250506020612b4185828601612a41565b9150509250929050565b612b5481612a20565b82525050565b6000602082019050612b6f6000830184612b4b565b92915050565b600080600060608486031215612b8e57612b8d6128a0565b5b6000612b9c86828701612af6565b9350506020612bad86828701612af6565b9250506040612bbe86828701612a41565b9150509250925092565b600060208284031215612bde57612bdd6128a0565b5b6000612bec84828501612af6565b91505092915050565b600060c082019050612c0a6000830189612ab5565b612c176020830188612ab5565b612c246040830187612b4b565b612c316060830186612b4b565b612c3e608083018561293b565b81810360a0830152612c5081846129c5565b9050979650505050505050565b6000612c6882612a83565b9050919050565b612c7881612c5d565b8114612c8357600080fd5b50565b600081359050612c9581612c6f565b92915050565b600080fd5b600080fd5b7f4e487b7100000000000000000000000000000000000000000000000000000000600052604160045260246000fd5b612cdd826129b4565b810181811067ffffffffffffffff82111715612cfc57612cfb612ca5565b5b80604052505050565b6000612d0f612896565b9050612d1b8282612cd4565b919050565b600067ffffffffffffffff821115612d3b57612d3a612ca5565b5b612d44826129b4565b9050602081019050919050565b82818337600083830152505050565b6000612d73612d6e84612d20565b612d05565b905082815260208101848484011115612d8f57612d8e612ca0565b5b612d9a848285612d51565b509392505050565b600082601f830112612db757612db6612c9b565b5b8135612dc7848260208601612d60565b91505092915050565b600080600060608486031215612de957612de86128a0565b5b6000612df786828701612c86565b935050602084013567ffffffffffffffff811115612e1857612e176128a5565b5b612e2486828701612da2565b925050604084013567ffffffffffffffff811115612e4557612e446128a5565b5b612e5186828701612da2565b9150509250925092565b612e648161292f565b8114612e6f57600080fd5b50565b600081359050612e8181612e5b565b92915050565b60008060408385031215612e9e57612e9d6128a0565b5b6000612eac85828601612af6565b9250506020612ebd85828601612e72565b9150509250929050565b600067ffffffffffffffff821115612ee257612ee1612ca5565b5b612eeb826129b4565b9050602081019050919050565b6000612f0b612f0684612ec7565b612d05565b905082815260208101848484011115612f2757612f26612ca0565b5b612f32848285612d51565b509392505050565b600082601f830112612f4f57612f4e612c9b565b5b8135612f5f848260208601612ef8565b91505092915050565b60008060008060808587031215612f8257612f816128a0565b5b6000612f9087828801612af6565b9450506020612fa187828801612af6565b9350506040612fb287828801612a41565b925050606085013567ffffffffffffffff811115612fd357612fd26128a5565b5b612fdf87828801612f3a565b91505092959194509250565b612ff481612c5d565b82525050565b600060208201905061300f6000830184612feb565b92915050565b6000806040838503121561302c5761302b6128a0565b5b600061303a85828601612af6565b925050602061304b85828601612af6565b9150509250929050565b7f4e487b7100000000000000000000000000000000000000000000000000000000600052602260045260246000fd5b6000600282049050600182168061309c57607f821691505b602082108114156130b0576130af613055565b5b50919050565b7f4552433732313a20617070726f76616c20746f2063757272656e74206f776e6560008201527f7200000000000000000000000000000000000000000000000000000000000000602082015250565b6000613112602183612970565b915061311d826130b6565b604082019050919050565b6000602082019050818103600083015261314181613105565b9050919050565b7f4552433732313a20617070726f76652063616c6c6572206973206e6f7420746f60008201527f6b656e206f776e6572206e6f7220617070726f76656420666f7220616c6c0000602082015250565b60006131a4603e83612970565b91506131af82613148565b604082019050919050565b600060208201905081810360008301526131d381613197565b9050919050565b7f4552433732313a2063616c6c6572206973206e6f7420746f6b656e206f776e6560008201527f72206e6f7220617070726f766564000000000000000000000000000000000000602082015250565b6000613236602e83612970565b9150613241826131da565b604082019050919050565b6000602082019050818103600083015261326581613229565b9050919050565b7f41756374696f6e206e6f742079657420656e6465642e00000000000000000000600082015250565b60006132a2601683612970565b91506132ad8261326c565b602082019050919050565b600060208201905081810360008301526132d181613295565b9050919050565b7f61756374696f6e456e642068617320616c7265616479206265656e2063616c6c60008201527f65642e0000000000000000000000000000000000000000000000000000000000602082015250565b6000613334602383612970565b915061333f826132d8565b604082019050919050565b6000602082019050818103600083015261336381613327565b9050919050565b7f4e487b7100000000000000000000000000000000000000000000000000000000600052601260045260246000fd5b7f4e487b7100000000000000000000000000000000000000000000000000000000600052601160045260246000fd5b60006133d382612a20565b91506133de83612a20565b9250826133ee576133ed61336a565b5b828204905092915050565b600061340482612a20565b915061340f83612a20565b92508282101561342257613421613399565b5b828203905092915050565b600061343882612a20565b915061344383612a20565b9250827fffffffffffffffffffffffffffffffffffffffffffffffffffffffffffffffff0382111561347857613477613399565b5b828201905092915050565b60006040820190506134986000830185612ab5565b6134a56020830184612b4b565b9392505050565b7f4f776e6572206973206e6f742074686520636f6e747261637400000000000000600082015250565b60006134e2601983612970565b91506134ed826134ac565b602082019050919050565b60006020820190508181036000830152613511816134d5565b9050919050565b7f41756374696f6e20616c726561647920656e6465640000000000000000000000600082015250565b600061354e601583612970565b915061355982613518565b602082019050919050565b6000602082019050818103600083015261357d81613541565b9050919050565b7f546865726520616c726561647920697320612068696768657220626964000000600082015250565b60006135ba601d83612970565b91506135c582613584565b602082019050919050565b600060208201905081810360008301526135e9816135ad565b9050919050565b7f4552433732313a20696e76616c696420746f6b656e2049440000000000000000600082015250565b6000613626601883612970565b9150613631826135f0565b602082019050919050565b6000602082019050818103600083015261365581613619565b9050919050565b7f4552433732313a2061646472657373207a65726f206973206e6f74206120766160008201527f6c6964206f776e65720000000000000000000000000000000000000000000000602082015250565b60006136b8602983612970565b91506136c38261365c565b604082019050919050565b600060208201905081810360008301526136e7816136ab565b9050919050565b7f546f6b656e20646f6573206e6f74206578697374000000000000000000000000600082015250565b6000613724601483612970565b915061372f826136ee565b602082019050919050565b6000602082019050818103600083015261375381613717565b9050919050565b600081905092915050565b600061377082612965565b61377a818561375a565b935061378a818560208601612981565b80840191505092915050565b60006137a28285613765565b91506137ae8284613765565b91508190509392505050565b7f4f776e61626c653a206e6577206f776e657220697320746865207a65726f206160008201527f6464726573730000000000000000000000000000000000000000000000000000602082015250565b6000613816602683612970565b9150613821826137ba565b604082019050919050565b6000602082019050818103600083015261384581613809565b9050919050565b7f4552433732313a207472616e736665722066726f6d20696e636f72726563742060008201527f6f776e6572000000000000000000000000000000000000000000000000000000602082015250565b60006138a8602583612970565b91506138b38261384c565b604082019050919050565b600060208201905081810360008301526138d78161389b565b9050919050565b7f4552433732313a207472616e7366657220746f20746865207a65726f2061646460008201527f7265737300000000000000000000000000000000000000000000000000000000602082015250565b600061393a602483612970565b9150613945826138de565b604082019050919050565b600060208201905081810360008301526139698161392d565b9050919050565b7f4f776e61626c653a2063616c6c6572206973206e6f7420746865206f776e6572600082015250565b60006139a6602083612970565b91506139b182613970565b602082019050919050565b600060208201905081810360008301526139d581613999565b9050919050565b7f4552433732313a206d696e7420746f20746865207a65726f2061646472657373600082015250565b6000613a12602083612970565b9150613a1d826139dc565b602082019050919050565b60006020820190508181036000830152613a4181613a05565b9050919050565b7f4552433732313a20746f6b656e20616c7265616479206d696e74656400000000600082015250565b6000613a7e601c83612970565b9150613a8982613a48565b602082019050919050565b60006020820190508181036000830152613aad81613a71565b9050919050565b7f45524337323155524953746f726167653a2055524920736574206f66206e6f6e60008201527f6578697374656e7420746f6b656e000000000000000000000000000000000000602082015250565b6000613b10602e83612970565b9150613b1b82613ab4565b604082019050919050565b60006020820190508181036000830152613b3f81613b03565b9050919050565b7f4552433732313a20617070726f766520746f2063616c6c657200000000000000600082015250565b6000613b7c601983612970565b9150613b8782613b46565b602082019050919050565b60006020820190508181036000830152613bab81613b6f565b9050919050565b7f4552433732313a207472616e7366657220746f206e6f6e20455243373231526560008201527f63656976657220696d706c656d656e7465720000000000000000000000000000602082015250565b6000613c0e603283612970565b9150613c1982613bb2565b604082019050919050565b60006020820190508181036000830152613c3d81613c01565b9050919050565b600081519050919050565b600082825260208201905092915050565b6000613c6b82613c44565b613c758185613c4f565b9350613c85818560208601612981565b613c8e816129b4565b840191505092915050565b6000608082019050613cae6000830187612ab5565b613cbb6020830186612ab5565b613cc86040830185612b4b565b8181036060830152613cda8184613c60565b905095945050505050565b600081519050613cf4816128d6565b92915050565b600060208284031215613d1057613d0f6128a0565b5b6000613d1e84828501613ce5565b91505092915050565b6000613d3282612a20565b91507fffffffffffffffffffffffffffffffffffffffffffffffffffffffffffffffff821415613d6557613d64613399565b5b600182019050919050565b6000613d7b82612a20565b9150613d8683612a20565b925082613d9657613d9561336a565b5b828206905092915050565b7f4e487b7100000000000000000000000000000000000000000000000000000000600052603260045260246000fdfea264697066735822122022b4d909445d2cac483993a8fcaaeec5be775afd5c82b215f9747df09695e28a64736f6c63430008090033",
  "linkReferences": {},
  "deployedLinkReferences": {}
}